:020000040000fa
:10000000f07f00203dba01004dec010053ec0100ef
:1000100000000000000000000000000000000000e0
:10002000000000000000000000000000638d0000e0
:100030000000000000000000638d0000638d0000e0
:10004000638d0000638d0000638d0000638d0000f0
:10005000e1490100638d000041310100638d000022
:10006000638d0000638d0000638d0000638d0000d0
:100070006d940000f9c600004d0f0100638d000073
:10008000638d0000638d000055c50100638d000085
:10009000638d00000000000000000000638d000080
:1000a000638d0000638d0000638d0000638d000090
:020000040000fa
:1000b000f8b5c046f8bc08bc9e46704725b801009c
:1000c000f8b5c046f8bc08bc9e467047fdb70100b5
:020000040000fa
:0800d000b02301000100000053
:020000040000fa
:1000d800f0b516001f00446a9db00490259d069651
:1000e8000797002c08d110201ef040fc049b586292
:1000f800446084600460c460049b5b6a19680029da
:100108000bd05a68012393404a608b6004981cf016
:1001180047fe0022049b5b6a1a60079b002b1cdacf
:1001280001232b607b005b080793079cba4b2200d6
:1001380019931a409a421cd1b84b249a1360069a14
:10014800b74b002a03d1240301d100f08cfd269a75
:10015800002a05d109330a9308e000232b60e4e75d
:100168001a0009320a920c33269a13600a981db0b5
:10017800f0bd069e079f002200233000390017f0cb
:10018800ffff051e0ed00123249a1360a44b1a000a
:100198000d320a92269a002ae8d01a0026990e32c1
:1001a8000a60e3e71aab01931bab009332003b00f4
:1001b800049815f0b1fc630005905b0d00d17fe059
:1001c8003a03984c120b14432100974a30001895b3
:1001d8009e180022954b02f09dfd954a954b05f01f
:1001e800a3fe954a954b03f06df8040030000d000e
:1001f80018f082fd924a934b05f096fe02000b0020
:100208002000290003f05ef804000d0019f070fbcf
:100218000022039000232000290017f0b7ff0028d0
:100228000ed0039818f068fd0b000200290020008a
:1002380017f0a6ff030058425841039b1b1a03936b
:1002480001231693039b162b0fd87f49db00c9188f
:1002580008684968069a079b17f0acff00284bd03e
:10026800039b013b0393002316931a9b9e1b0023b9
:100278000b933300013b0c9304d501239b1b0b9379
:1002880000230c93039b002b38db039a0c9b9446aa
:1002980063440c9300230f920893229b0125092b9a
:1002a80000d991e0052b02dd0025043b2293229b17
:1002b800981e032800d991e01ef03afb8284297623
:1002c8001a9b1b9a9e18614bf218202a0fdd203bbf
:1002d8000698f318d84040239b1a9c40204319f0f5
:1002e80099fd01235a4c013e0919189371e72023ff
:1002f80006989b1a9840f2e71690b6e70b9b039a6c
:100308009b1a0b935342089300230f93c5e70123cd
:100318000e93239b002b65dd1f000d93049a546aee
:100328000022626004221100143199425fd9616889
:10033800049818f06ffe049b20605b6a1b680a93a0
:100348000e2f00d9fce0002d00d1f9e0069b079c98
:1003580014931594039b002b00dc7de01a000f21f9
:10036800394b0a40d2009b185c681b6810931194a3
:10037800039b02241d11eb060ad5364b0d401a6a61
:100388005b6a1498159903f027fd032406900791da
:10039800304e002d30d1109a119b0698079903f022
:1003a8001bfd0690079171e00123239a0e93944652
:1003b800039b63445f1c0d933b1eafdc0123ade739
:1003c8000023a5e70023f0e700230e952293013bc5
:1003d8000d931f000022122323929fe701230e93ff
:1003e800023bf5e701230d931f001a00f4e761684b
:1003f80052000131616096e701231d4208d0109830
:100408001199e4183268736805f08efd1090119107
:100418006d100836bde7c0460000f07f0f270000ca
:1004280020eb01000000f03f01fcffff0000f83f57
:1004380061436f63a787d23fb3c8608b288ac63fe2
:10044800fb799f501344d33f903b010032040000d6
:10045800000010fe48d90100039b0224002b15d090
:10046800149815995d420f23c94a2b40db00d31815
:100478001a685b6805f058fd002306900791c54e81
:100488002d11002d00d08be0002b8ad1169b002b5c
:1004980000d191e0069a079b109211931098119938
:1004a8000022bd4b17f072fe002800d184e0002f17
:1004b80000d181e00d9b002b3edd10981199039b24
:1004c80000225e1eb54b05f02ffd069007910d9d8d
:1004d8000134200018f010fc069a079b05f024fd53
:1004e8000022af4b02f0eefe12901391129b139c68
:1004f800ac4a10931194139b9c181194002d5ed153
:10050800069807990022a84b02f004fc109a2300d1
:100518000690079117f04efe002800d000e3a3488c
:100528001399844661440b0006980799109a17f0ae
:100538002dfe002800d0e7e2149b159c0693079433
:100548001b9b002b00da56e1039a0e2a00dd52e1cc
:100558008f4bd2009b185c681b6808930994239bf7
:10056800002b00dbcee0002f00ddcbe000d0cee298
:100578000898099900228c4b05f0d6fc069a079b2f
:1005880017f022fe3e000897002800d0a3e20a9b3d
:100598000a9a5d1c31231370039b013303939ee277
:1005a8000122154205d0a4183268736805f0bcfc16
:1005b80001236d10083664e7039e3d0089e70a9a17
:1005c800691e521917920e9a714bc900002a4ad017
:1005d8005b181a685b680020754903f0fdfb109ae8
:1005e800119b02f097fb0a9b1090119112930698a9
:1005f800079919f07df9040018f07efb02000b0042
:100608000698079902f086fb129b30345d1c1c701b
:10061800109a119b0690079117f0b8fd002865d134
:10062800069a079b00205c4902f074fb109a119b04
:1006380017f0acfd002800d0bde0179b9d4200d10b
:100648007ae7109811990022544b05f06dfc0022ae
:100658001090119106980799504b05f065fc12957a
:1006680006900791c3e7591808684968109a119bc2
:1006780005f05afc109011910a9c179d069807994d
:1006880019f036f9129018f037fb02000b000698a3
:10069800079902f03ffb129b0690079130332370b5
:1006a800179b01340022a34224d1414b1098119981
:1006b80002f008fe02000b000698079917f07afd71
:1006c800002800d077e0109a119b0020384902f0ea
:1006d80021fb02000b000698079917f057fd002828
:1006e80000d129e76b1e1a78302a01d003963fe023
:1006f8001d00f7e706980799284b05f015fc0690aa
:100708000791bbe70a9e089a099b0698079903f088
:1007180063fb19f0edf8040018f0eefa089a099b4b
:1007280005f002fc0b0002000698079902f0f2faa5
:100738002300303333700a9b751ceb1a9f424bd150
:1007480002000b0002f0befd06000f0002000b00c5
:100758000898099917f01afd00282bd108980999cb
:1007680032003b0017f00cfd002801d0e30721d42c
:10077800059904981cf014fb00232b70039b249a02
:1007880001331360269b002b00d1efe41d60ede4dc
:10079800903b010048d901000000f03f00002440d0
:1007a80000001c400000c0fc000014400000c07c99
:1007b8000000e03f039e6b1e1a78392a06d10a9a78
:1007c8009a4207d130231370130001361a78013288
:1007d8001a708be71d00eee70022cf4b05f0a4fb53
:1007e80000220023069007912e0017f0c9fc00286c
:1007f80000d188e7bce70e9a002a00d187e0229a48
:10080800012a6edc189a002a67d0c44a9b18089df2
:100818000b9c0b9a0121d2180b920c9a0498d318ae
:100828000c931ef0f7f80600002c0edd0c9b002b35
:100838000bdd0c9a2300944200dd13000b9ae41a96
:10084800d21a0b920c9ad31a0c93089b002b1ed029
:100858000e9b002b5fd0002d11dd31002a0004987b
:1008680015f0e8fb059a0100060004980ff08efbce
:100878000599109004981cf093fa109b0593089b17
:100888005a1b04d00599049815f0d4fb0590012152
:1008980004981ef0bff80f9b0890002b3ddd1a004e
:1008a8000100049815f0c6fb229b08900025012b37
:1008b8003bdc0025069bab4233d1079b1b03ab42b5
:1008c8002fd1199b079a13422bd00b9b012501337b
:1008d8000b930c9b01330c9323e036231a9a9b1a33
:1008e80095e7089b7d1eab4206db5d1b002f0bdaec
:1008f8000b9bdc1b00238ce7089b0895ea1a0f9bcf
:1009080000259b180f93f1e70b9c3b0081e7089d9e
:100918000b9c0e9e88e7089ab4e7229b0025012bc2
:10092800c7dd0f9b0120002b0bd0089b089a1b6981
:100938000f9303339b00d31858681cf0fdf920234c
:10094800181a0c9bc0181f23184000d1abe02023b5
:100958001b1a042b00dc9be01c23181a0b9b241881
:100968001b180b930c9b1b180c930b9b002b05dd82
:100978001a000599049815f06bfa05900c9b002b4a
:1009880005dd1a000899049815f062fa0890169b7c
:10099800002b00d189e0089905981cf01afa002864
:1009a80000db82e0039b0a22013b039305990023a5
:1009b800049817f06dfe0e9b0590002b00d15be1ab
:1009c800002331000a22049817f062fe0d9b0600ee
:1009d800002b02dc229b022b6ddc002c05dd310094
:1009e8002200049815f034fa06003000002d11d0ca
:1009f8007168049818f00efb3100040033690c315b
:100a08009a1c92000c301df0fcff01222100049872
:100a180015f01efa0d9f0a9b013f0b93db19370057
:100a280006000f930899059810f000f839000d900a
:100a3800040005981cf0cdf932000e90089904982e
:100a480013f03ef801230c93c36830340500002be3
:100a580004d1010005981cf0bcf90c9029000498f9
:100a68001cf09ef90c9b229a134300d089e00123c5
:100a7800069a134200d084e0392c00d1a3e00e9be3
:100a8800002b01dd0d9c31340b9b5d1c1c7027e095
:100a9800042b00d169e70b9a1c33d2180b920c9add
:100aa800e418d31860e70300f5e7002f3cdc229b2d
:100ab800022b39dd0d970d9b002b0cd108990522cf
:100ac800049817f0e5fd0890010005981cf081f9dd
:100ad800002800dd5be5239b0a9ddb430393002789
:100ae800089904981cf05cf9002e00d140e6002f0c
:100af80005d0b74203d0390004981cf051f93100f1
:100b080004981cf04df933e608952e00e3e700231e
:100b180008931e00dfe7c0460000244033040000ad
:100b2800039608952e0032e50e9b0d97002b00d0fa
:100b380053e70a9d089905980ff078ff0a9b303013
:100b48000d9a287001350400eb1a9a4278dc151ebc
:100b580000dc012500270a9b5d19059901220498ec
:100b680015f076f9089905901cf033f900282fdc68
:100b780001d1e3072cd46b1e1a78302ab0d11d009e
:100b8800f9e70e9b002b07db1d00229b1d4326d196
:100b98000123069a134222d10c9b002b00dc73e739
:100ba80005990122049815f053f9089905901cf04d
:100bb80010f9002804dc00d066e7e30700d463e7f7
:100bc800392c00d05ee70b9b0b9a5d1c3923137000
:100bd8006b1e1a78392a3bd001321a7080e70b9bba
:100be80001330d930c9b002b05dd392cebd00d9dab
:100bf80001340b9b4ae70b9b0f9a0d9d1c70934287
:100c0800abd000230a220599049817f041fd002370
:100c180005900a2239000498b74206d117f038fd2a
:100c2800070006000d9b0b93fce617f031fd310021
:100c3800070000230a22049817f02afd0600f1e7ae
:100c480000230a220599049817f022fd059071e700
:100c58000a9a9a4205d1039b0133039331231370f7
:100c68003ee71d00b4e7269a0a930833002a01d00c
:100c7800fff77afafff77afa0d9b002b00dd58e7a9
:0c0c8800229b022b00dc54e715e7c0465d
:020000040000fa
:100c9400801800201c0000000000000060150020e7
:100ca4006000000000000000fc170020200000008d
:100cb400000000001c1800200400000001000000d7
:100cc400ffffffff8b19002001000000000000005f
:100cd400641a002001000000000000008c190020ac
:100ce400040000000000000090190020040000002f
:100cf40000000000651a0020010000000000000050
:100d0400661a00200100000000000000000000201e
:100d14002800000000000000671a00200100000005
:100d240000000000681a002001000000000000001c
:100d3400691a00200100000000000000941900203e
:100d440004000000000000009819002004000000c6
:100d5400000000009c1900200400000000000000b6
:100d6400661600200200000000000000a019002008
:100d74000400000000000000601a002002000000cf
:100d840001000000000100006a1a002001000000b8
:100d9400000000006b1a00200100000000000000a9
:100da400a41900200400000000000000a81900207d
:100db4000400000000000000ac1900200400000042
:100dc40000000000b0190020040000000000000032
:100dd400b419002004000000000000005419002091
:100de40008000000000000006c1a00200100000050
:100df40001000000ff000000b819002004000000fa
:100e040000000000bc1900200400000000000000e5
:100e14006d1a002001000000010000000400000021
:100e24005219002002000000000000006e1a002089
:100e340001000000000000006f1a00200100000003
:100e440000000000701a00200100000000000000f3
:100e540028000020bc00000000000000b0110020a9
:100e6400f400000000000000e40000200400000082
:100e740000000000201800202000000000000000f6
:100e8400401800202000000000000000601800202e
:100e94002000000000000000e8000020c000000066
:100ea40000000000501700202c000000000000008b
:100eb4007c1700202c00000000000000711a0020a4
:100ec400010000000000000068160020400000003f
:100ed40000000000fc13002080000000000000005f
:100ee400b40c00200002000000000000a801002053
:100ef40008000000000000005c1900200800000049
:100f04000000000094050020000400000000000020
:100f1400c01900200400000000000000c4190020d3
:100f240004000000000000007c1400208000000089
:100f340000000000c81900200400000000000000a8
:100f4400301900200c00000000000000a412002052
:100f5400c800000000000000721a00200100000018
:100f640000000000731a00200100000000000000cf
:100f7400641900200800000000000000e8160020aa
:100f84003800000000000000940900202003000045
:100f940000000000621a00200200000001000000ae
:100fa40001000000d4170020280000000000000009
:100fb4006c1300209000000000000000b00100202d
:100fc4001000000000000000c001002042000000ea
:100fd40000000000cc190020040000000000000004
:100fe400040200203400000000000000d01900209a
:100ff40004000000010000002b2f3d40d419002004
:1010040004000000010000002d5f00009c18002077
:101014001c00000000000000b40e0020900100003d
:1010240000000000fc140020640000000000000028
:10103400741a00200100000001000000ff000000fd
:10104400d81900200400000000000000dc19002072
:101054000400000000000000a81700202c0000007d
:1010640000000000b81800201c0000000000000070
:10107400d41800201c00000000000000f01800201c
:101084001800000000000000751a00200100000094
:1010940000000000761a002001000000000000009b
:1010a400771a00200100000000000000781a0020d8
:1010b4000100000000000000791a00200100000077
:1010c40000000000e01900200400000000000000ff
:1010d4007a1a002001000000000000007b1a0020a2
:1010e4000100000000000000e419002004000000da
:1010f40001000000ffffffff7c1a00200100000038
:1011040000000000e81900200400000001000000b5
:10111400ffffffff7d1a0020010000000000000017
:10112400ec1900200400000001000000ffffffff95
:101134007e1a00200100000000000000f0190020c9
:101144000400000001000000ffffffff7f1a0020e1
:101154000100000000000000f41900200400000059
:1011640001000000ffffffff801a002001000000c3
:10117400000000003802002004000000000000000d
:10118400811a00200100000000000000f81900206e
:1011940004000000000000006c190020080000009a
:1011a40001000000640200203c0200203c020020f8
:1011b4002c00000000000000201700203000000078
:1011c4000100000000030000b0020000a08601003e
:1011d400000000000000000000000000000000000b
:1011e4000000000000000000dc0500001400000006
:1011f40000000000821a002001000000000000002e
:10120400680200200900000000000000841900208a
:101214000700000001000000756e7573656400002e
:10122400740200205402000000000000831a002011
:101234000100000000000000841a002001000000ea
:1012440000000000851a00200100000000000000da
:10125400861a00200100000000000000871a002008
:10126400010000000100000001000000fc19002042
:101274000400000001000000ffffffff001a00202f
:101284000400000001000000ffffffff881a002097
:101294000100000000000000891a00200100000085
:1012a40000000000041a00200400000000000000f8
:1012b400081a00200400000001000000ffffffffe7
:1012c400c8040020bc000000000000000c1a00202c
:1012d4000400000001000000ffffffff101a0020bf
:1012e4000400000001000000ffffffff141a0020ab
:1012f4000400000001000000ffffffff8a1a002025
:1013040001000000000000008b1a00200100000012
:10131400000000008c1a0020010000000000000002
:101324008d1a002001000000000000008e1a002029
:101334000100000000000000181a00200400000052
:1013440000000000741900200800000001000000e3
:1013540053414d2e496f54001c1a00200400000014
:10136400000000008f1a00200100000000000000af
:10137400901a00200100000000000000081900205d
:1013840014000000010000003c5052454649583efc
:10139400000000000000000000000000911a00207e
:1013a4000100000000000000921a0020010000006b
:1013b40000000000201a00200400000001000000ca
:1013c400ffffffff241a00200400000001000000ba
:1013d400ffffffff281a00200400000001000000a6
:1013e400ffffffff931a002001000000000000002f
:1013f400941a00200100000000000000951a00204b
:101404000100000000000000961a00200100000006
:10141400000000001c19002014000000010000005e
:1014240042414141414144443144424141414444a7
:10143400314400002c1a00200400000000000000c9
:10144400971a0020010000000100000001000000c4
:10145400301a00200400000001000000ffffffff1d
:10146400981a00200100000000000000341a002037
:101474000400000001000000ffffffff991a002094
:101484000100000000000000381a002004000000e1
:1014940000000000201600204600000000000000ac
:1014a400840500200c000000000000003c1a00200d
:1014b4000400000001000000c0150020c015002039
:1014c40060000000010000000000000084e0010052
:1014d400a4e0010064e0010000000000000000003e
:1014e40000000000000000000000000000000000f8
:1014f40000000000000000000000000000000000e8
:1015040000000000000000000000000000000000d7
:1015140000000000000000000000000000000000c7
:101524000000000000000000401a00200400000039
:1015340000000000441a0020040000000000000025
:101544003c1900200b000000000000004719002097
:101554000b00000000000000481a002004000000f6
:10156400000000004c1a00200400000000000000ed
:10157400501a002004000000000000007c19002024
:10158400080000000100000070ec010070ec010094
:10159400a816002040000000010000000100000027
:1015a400000000004a0000000000000000000000ed
:1015b4000000000000000000000000000000000027
:1015c4004a000000000000000000000000000000cd
:1015d4000000000000000000000000004410002093
:1015e4006c01000001000000430000000000000046
:1015f40000000000000000000000000000000000e7
:101604000000000000000000430000000000000093
:1016140000000000000000000000000000000000c6
:101624000000000000000000430000000000000073
:1016340000000000000000000000000000000000a6
:101644000000000000000000430000000000000053
:101654000000000000000000000000000000000086
:101664000000000000000000430000000000000033
:101674000000000000000000000000000000000066
:101684000000000000000000430000000000000013
:101694000000000000000000000000000000000046
:1016a40000000000000000004300000000000000f3
:1016b4000000000000000000000000000000000026
:1016c40000000000000000000de70100c9dc01007b
:1016d4000000000050100100b9eb0100b8eb01005c
:1016e400b8eb0100b8eb0100b8eb0100b8eb010066
:1016f400b8eb0100b8eb0100b8eb0100b8eb010056
:10170400ffffffffffffffffffffffffffff0000e3
:10171400010041534349490000000000000000005b
:1017240000000000000000000000000000000000b5
:10173400000041534349490000000000000000003c
:101744000000000000000000000000000000000095
:1017540000000000900500200400000000000000cc
:10176400541a00200400000000000000581a002051
:101774000400000001000000541a00205c1a00203c
:101784000400000000000000000000000000000051
:020000040000fa
:10179400f0b5e84ca54402af02003960e64b802165
:1017a40089008c46bc4463441a70e44bfc2252000a
:1017b400ba1813603b68002b01d100f06afcde4bc1
:1017c400802292009446bc4463441b78043b2e2b35
:1017d40001d900f060fc9a00d94bd3181b689f46ce
:1017e4003b68fa225200ba181360fc235b00fb1812
:1017f4001b68db7901225340dbb2002b01d000f0df
:101804004cfcfc235b00fb181b680022da71fa23f2
:101814005b00fb181b685b785bb2002b34d1fa23a6
:101824005b00fb181b681a78fc235b00fb181b6821
:101834005a72fa235b00fb181b681b78002b09d033
:10184400fc235b00fb181b681b7a180019f06efb65
:1018540000f025fcfc235b00fb181b6880229b58ce
:10186400002b01d100f01bfcfc235b00fb181b6860
:1018740080229c58fc235b00fb181868002300227c
:101884000021a04700f00bfcfc235b00fb181b6845
:1018940000225a7200f003fc3b68f8225200ba1886
:1018a4001360fc235b00fb181b680b331800f82340
:1018b4005b00fb181b680433062219001df0a3f813
:1018c400fc235b00fb181b6811331800f8235b0032
:1018d400fb181b680a33202219001df094f8f82322
:1018e4005b00fb181b680a3318001df02df9030078
:1018f400d9b2fc235b00fb181b6831229954f823ee
:101904005b00fb181b6801215956fc235b00fb1884
:101914001b6832229954f8235b00fb181b689978e2
:10192400fc235b00fb181b6833229954f8235b00eb
:10193400fb181b68d978fc235b00fb181b68342256
:101944009954fc235b00fb181b6801229a72fc2348
:101954005b00fb181b6880229b58002b00d1a0e37e
:10196400fc235b00fb181b6880229d58fc235b0052
:10197400fb181868fc235b00fb181b681b7a0133f7
:10198400d9b2fc235b00fb181b685a7afc235b006a
:10199400fb181b680b33f024ff343c19a8470300e1
:1019a4002370f023ff33fb181b78002b2cd0fc236f
:1019b4005b00fb181b681b7a0133dab2fc235b0063
:1019c400fb181b681a72fc235b00fb181b681c7a4b
:1019d4001cf0e8fe03009c420ed2fc235b00fb18c3
:1019e4001b681b7a180019f0a1fafc235b00fb1892
:1019f4001b6800229a7254e3fc235b00fb181b68eb
:101a04008022002199504ce3fc235b00fb181b68e7
:101a140080220021995044e33b68f4225200ba1812
:101a24001360f4235b00fb181b681b78012b20d187
:101a3400fc235b00fb181b6801229a71fc235b00ea
:101a4400fb181b689a229b5c01225340dbb2002bdb
:101a540023d0fc235b00fb181b689c229b58002ba3
:101a64001bd0fc235b00fb181b68992201219954ad
:101a740013e0f4235b00fb181b681b78002b0cd1cc
:101a8400fc235b00fb181b6800229a71fc235b009b
:101a9400fb181b684c2200219954fc235b00fb18a3
:101aa4001b6884229b58002b00d1fce2fc235b00c2
:101ab400fb181b6884229b58fc225200ba18106839
:101ac400f4225200ba1812681178f4225200ba189b
:101ad400126852789847e6e23b68f2225200ba183c
:101ae4001360fc235b00fb181b6884229b58002bab
:101af40000d1dae2f2235b00fb181b681b785bb2af
:101b04001a00163210d01a00163202dc173306d02f
:101b140024e01a00153217d014331ad01ee0094bf2
:101b2400fb1805221a701ee0064bfb1803221a70dc
:101b340019e0c046f4fdffff07feffffb0110020cf
:101b440038460100ff010000a14bfb1801221a7066
:101b540009e09f4bfb1806221a7004e09c4bfb180b
:101b640007221a70c046fc235b00fb181b68842202
:101b74009b58fc225200ba181068954aba18127879
:101b84000021984791e23b68f0225200ba18136092
:101b9400fc235b00fb181b681b7901225340dbb25a
:101ba400002b06d0fc235b00fb181b689922012143
:101bb4009954f0235b00fb181b6803331b781a0647
:101bc400f0235b00fb181b6802331b781b041a43c9
:101bd400f0235b00fb181b6801331b781b021343c3
:101be400f0225200ba18126812781a43fc235b00e0
:101bf400fb181b689c215a50fc235b00fb181b68d4
:101c0400b0229b58002b00d151e2fc235b00fb184f
:101c14001b68b0229b58fc225200ba181068fc22a0
:101c24005200ba1812689c215258110098473ee29b
:101c34003b68ee225200ba181360ee235b00fb18d7
:101c44001b68180015f08cfe0300ec225200ba1831
:101c54001360fc235b00fb181b6888229b58002b35
:101c640000d126e2fc235b00fb181b6888229b58ea
:101c7400fc225200ba181268ec214900791809684c
:101c84001000984715e2fc235b00fb181b68b82280
:101c94009b58002b00d10ee23b68ea225200ba188e
:101ca4001360ea235b00fb181b6818001cf04cff50
:101cb4000300d9b2474b802292009446bc4463444b
:101cc40020229954434b802292009446bc4463449e
:101cd40020229b5c202b00d9efe10c23fb1820224f
:101ce400002118001cf0f2feea235b00fb181968bf
:101cf400384b802292009446bc44634420229b5c6f
:101d04001a000c23fb1818001cf07dfeea235b006c
:101d1400fb181b6862229a5c2f4b802189008c4639
:101d2400bc4463441a70ea235b00fb181b686222fc
:101d34009b5c022b2cd1ea235b00fb181b6821332c
:101d440018001cf001ff0300dab2234b8021890044
:101d54008c46bc4463441a713823fb180533402273
:101d6400002118001cf0b2feea235b00fb181b687c
:101d740021331900184b802292009446bc446344da
:101d84001b791a003823fb18053318001cf03bfe9e
:101d9400fc235b00fb181b68b8229c58fc235b00e7
:101da400fb181868ea235b00fb181b6863229b5c22
:101db4005a425341dbb23822ba180c217918a04791
:101dc400fc235b00fb181b68b8220021995072e1c8
:101dd400ff0100000cfeffff38feffff3b68e82216
:101de4005200ba181360e8235b00fb181b68180044
:101df4001cf0aafe0300d9b2fc235b00fb181b688d
:101e04006d229954fc235b00fb181b686d229b5cbc
:101e1400202b00d953e1fc235b00fb181b684d33d6
:101e24002022002118001cf051fefc235b00fb184b
:101e34001b684d331800e8235b00fb181968fc236a
:101e44005b00fb181b686d229b5c1a001cf0dbfd19
:101e5400e8235b00fb181b682122995cfc235b00d0
:101e6400fb181b687c229954e8235b00fb181b6851
:101e740025229b5c1a06e8235b00fb181b682421bf
:101e84005b5c1b041a43e8235b00fb181b682321db
:101e94005b5c1b021343e8225200ba181268222129
:101ea400525c1a43fc235b00fb181b681a67fc2373
:101eb4005b00fb181b6874331800e8235b00fb18f5
:101ec4001b682633062219001cf09dfdfc235b00d1
:101ed400fb181b684c2201219954fc235b00fb185e
:101ee4001b688c229b58002b00d1eae0fc235b008a
:101ef400fb181b688c229c58fc235b00fb18186899
:101f0400fc235b00fb181b684d331900fc235b00aa
:101f1400fb181b6870331d00fc235b00fb181b6857
:101f24007c229e5ce8235b00fb181b682c229b56da
:101f3400009333002a00a047c3e03b68e622520026
:101f4400ba181360e6235b00fb181b68002159567e
:101f5400fc235b00fb181b6844229954fc235b00a0
:101f6400fb181b6890229b58002b00d1abe0fc238c
:101f74005b00fb181b6890229b58fc225200ba1885
:101f84001068fc225200ba181268442152561100fb
:101f94009847fc235b00fb181b6890220021995092
:101fa40091e03b68e4225200ba181360fc235b0002
:101fb400fb181b6894229b58002b00d185e00c234e
:101fc400fb18180019f084fbe4235b00fb181b6862
:101fd4009c1ce4235b00fb181b68023318001cf0f4
:101fe400b3fd0300dab20c23fb182100180016f02d
:101ff400a3ffe4235b00fb181b685a780c23fb182f
:102004001100180018f0c0f8e4235b00fb181b68eb
:102014001b78012b02d0022b06d01ce03823fb18be
:1020240018001bf097fe24e0e4235b00fb181b68f8
:1020340023331c00e4235b00fb181b6823331800c4
:102044001cf082fd0300dab23823fb1821001800cb
:1020540018f06af80de0fc235b00fb181b6894225f
:102064009b58fc225200ba1810680022002198479d
:102074002ce0fc235b00fb181b6894229b58fc2279
:102084005200ba1810683822ba180c2179189847e7
:102094001be0c0461ae0c04618e0c04616e0c04641
:1020a40014e0c04612e0c04610e0c0460ee0c04650
:1020b4000ce0c0460ae0c04608e0c04606e0c04660
:1020c40004e0c04602e0c04600e0c046bd468123ad
:0820d4009b009d44f0bdc046d5
:020000040000fa
:1020dc005b7370695f636d645d3a204661696c6522
:1020ec006420636d642077726974652c206275734b
:1020fc00206572726f722e2e2e0d0a005b73706942
:10210c005f636d645f7273705d3a204661696c65e4
:10211c006420636d6420726573706f6e73652072da
:10212c006561642c20627573206572726f722e2e3d
:10213c002e0d0a005b7370695f636d645f72737060
:10214c005d3a204661696c656420636d642072653c
:10215c0073706f6e736520726561640a0000c0460f
:10216c005b7370695f646174615f726561645d3a31
:10217c00204661696c6564206461746120726573ca
:10218c00706f6e736520726561642c2062757320ac
:10219c006572726f722e2e2e0d0a00005b737069c1
:1021ac005f646174615f726561645d3a2046616968
:1021bc006c6564206461746120726573706f6e73fa
:1021cc006520726561642e2e2e2825303278290dfb
:1021dc000a00c0465b7370695f646174615f72650d
:1021ec0061645d3a204661696c6564206461746168
:1021fc0020626c6f636b20726561642c2062757356
:10220c00206572726f722e2e2e0d0a005b73706930
:10221c005f646174615f726561645d3a20466169f7
:10222c006c6564206461746120626c6f636b204325
:10223c00524320726561642c206275732065727242
:10224c006f722e2e2e0d0a005b7370695f646174c1
:10225c00615f77726974655d3a204661696c65648b
:10226c00206461746120626c6f636b20636d642009
:10227c0077726974652c20627573206572726f7247
:10228c002e2e2e0d0a00c0465b7370695f6461745c
:10229c00615f77726974655d3a204661696c65644b
:1022ac00206461746120626c6f636b207772697457
:1022bc00652c20627573206572726f722e2e2e0d36
:1022cc000a00c0465b7370695f646174615f77720a
:1022dc006974655d3a204661696c6564206461745b
:1022ec006120626c6f636b20435243207772697478
:1022fc00652c20627573206572726f722e2e2e0df6
:10230c000a00c0465b7370695f77726974655f72af
:10231c0065675d3a204661696c656420636d642c69
:10232c0020777269746520726567202825303878ab
:10233c00292e2e2e0d0a00005b7370695f7772696f
:10234c0074655f7265675d3a204661696c656420ef
:10235c00636d6420726573706f6e73652c20777279
:10236c0069746520726567202825303878292e2eef
:10237c002e0d0a005b7370695f77726974655f621a
:10238c006c6f636b5d3a204661696c656420636dac
:10239c00642c20777269746520626c6f636b2028e3
:1023ac0025303878292e2e2e0d0a00005b737069ab
:1023bc005f77726974655f626c6f636b5d3a204620
:1023cc0061696c656420636d6420726573706f6ef7
:1023dc0073652c20777269746520626c6f636b2057
:1023ec002825303878292e2e2e0d0a005b73706943
:1023fc005f77726974655f626c6f636b5d3a2046e0
:10240c0061696c656420626c6f636b2064617461dc
:10241c002077726974652e2e2e0d0a005b7370691d
:10242c005f77726974655f626c6f636b5d3a2046af
:10243c0061696c656420627573206572726f722eaf
:10244c002e2e0d0a0000c0465b7370695f777269af
:10245c0074655f626c6f636b5d3a204661696c6595
:10246c0064206461746120726573706f6e73652093
:10247c00726561642c2025782025782025780d0a3a
:10248c000000c0465b7370695f726561645f726562
:10249c00675d3a204661696c656420636d642c202d
:1024ac007265616420726567202825303878292e82
:1024bc002e2e0d0a0000c0465b7370695f72656159
:1024cc00645f7265675d3a204661696c6564206380
:1024dc006d6420726573706f6e73652c207265610c
:1024ec006420726567202825303878292e2e2e0d11
:1024fc000a00c0465b7370695f726561645f7265e8
:10250c00675d3a204661696c656420646174612082
:10251c00726561642e2e2e0d0a00c0465b737069c5
:10252c005f726561645f626c6f636b5d3a204661dc
:10253c00696c656420636d642c2072656164206233
:10254c006c6f636b202825303878292e2e2e0d0abf
:10255c000000c0465b7370695f726561645f626c9a
:10256c006f636b5d3a204661696c656420636d64d2
:10257c0020726573706f6e73652c207265616420b8
:10258c00626c6f636b202825303878292e2e2e0d27
:10259c000a00c0465b7370695f726561645f626c50
:1025ac006f636b5d3a204661696c656420626c6f89
:1025bc00636b206461746120726561642e2e2e0d34
:1025cc000a00c0465b6e6d5f7370695f696e6974fb
:1025dc005d3a204661696c656420696e7465726e43
:1025ec00616c20726561642070726f746f636f6cc4
:1025fc00207769746820435243206f6e2c207265db
:10260c00747279696e67207769746820435243202d
:10261c006f66662e2e2e0d0a0000c0465b6e6d5f37
:10262c007370695f696e69745d3a204661696c65a7
:10263c006420696e7465726e616c207265616420d1
:10264c0070726f746f636f6c2e2e2e0d0a00c04665
:10265c005b6e6d5f7370695f696e69745d3a20467d
:10266c0061696c656420696e7465726e616c20774b
:10267c00726974652070726f746f636f6c20726511
:10268c00672e2e2e0d0a00005b6e6d5f7370695ff6
:10269c00696e69745d3a204661696c20636d6420d3
:1026ac007265616420636869702069642e2e2e0d3a
:1026bc000a00c046526573657420616e64207265b1
:1026cc007472792025642025780d0a005265736593
:1026dc007420616e642072657472792025642025e3
:1026ec00782025780d0a0000526573657420616ea0
:1026fc006420726574727920256420257820256405
:04270c000d0a0000b2
:020000040000fa
:1027100080b5d8b000aff860b9607a600023ae220f
:102720005200ba1813600023ac225200ba1813608a
:102730000023ac225200ba181360dde2ac235b0028
:10274000fb181b689b01ba68d318a8225200ba185c
:1027500013600023ae225200ba18136063e0ae2368
:102760005b00fb181b680333ae225200ba181268d4
:10277000a8214900791809688a181178924ab0206e
:1027800040008446bc446244d154ae235b00fb1835
:102790001b680233ae225200ba1812680132a82117
:1027a0004900791809688a181178874ab0204000d2
:1027b0008446bc446244d154ae235b00fb181b68c2
:1027c0000133ae225200ba1812680232a821490021
:1027d000791809688a1811787b4ab020400084462d
:1027e000bc446244d154ae235b00fb181b68033326
:1027f000a8225200ba181268d3181978724bb02266
:102800005200ba18d218ae235b00fb181b68d3180d
:102810000a1c1a70ae235b00fb181b680433ae223f
:102820005200ba181360ae235b00fb181b683f2be5
:1028300095dd1023aa225200ba1813608de0aa2356
:102840005b00fb181b680f3b1a005f4bb02149006f
:102850008c46bc4463449200d358a6225200ba1856
:102860001360a6235b00fb181b680722d3411a00e4
:10287000a6235b00fb181b681221cb415a40a623fc
:102880005b00fb181b68db085340a4225200ba18f7
:102890001360aa235b00fb181b689a1e4a4bb021e9
:1028a00049008c46bc4463449200d358a62252008f
:1028b000ba181360a6235b00fb181b681122d341d2
:1028c0001a00a6235b00fb181b681321cb415a405a
:1028d000a6235b00fb181b689b0a5340a2225200f0
:1028e000ba181360aa235b00fb181b68103b1a0080
:1028f000354bb02149008c46bc4463449200d25809
:10290000a4235b00fb181b68d218aa235b00fb18ea
:102910001b68d91f2c4bb02040008446bc44634444
:102920008900cb58d218a2235b00fb181b68d11872
:10293000254bb02252009446bc446344aa22520064
:10294000ba1812689200d150aa235b00fb181b68ca
:102950000133aa225200ba181360aa235b00fb18a5
:102960001b683f2b00d86ae70023ae225200ba183a
:1029700013601ce0fb68ae225200ba1812682232c3
:102980009200d158114bb02252009446bc4463448b
:10299000ae225200ba1812689200d150ae235b00ea
:1029a000fb181b680133ae225200ba181360ae2325
:1029b0005b00fb181b68072bdcdd0023ae225200f6
:1029c000ba18136056e1c046d4feffffb4feffff05
:1029d000cf4bb02252009446bc4463441b68022291
:1029e000d3411a00ca4bb02149008c46bc44634411
:1029f0001b680d21cb415a40c54bb02149008c4684
:102a0000bc4463441b681621cb415340a4225200ae
:102a1000ba181360be4bb02252009446bc446344c3
:102a20001a68bb4bb02149008c46bc4463445b68c8
:102a30001a40b74bb02149008c46bc446344196826
:102a4000b34bb02040008446bc4463449b680b40b9
:102a50005a40af4bb02149008c46bc44634459688e
:102a6000ab4bb02040008446bc4463449b680b40a1
:102a70005340a0225200ba181360a4235b00fb1835
:102a80001a68a0235b00fb181b68d3189e22520013
:102a9000ba1813609e4bb02252009446bc44634463
:102aa0001b690622d3411a00994bb02149008c467c
:102ab000bc4463441b690b21cb415a40944bb02169
:102ac00049008c46bc4463441b691921cb415340e7
:102ad000a2225200ba1813608d4bb02252009446c5
:102ae000bc4463441a698a4bb02149008c46bc44fb
:102af00063445b691a40864bb02149008c46bc4454
:102b000063441b69d943824bb02040008446bc44d7
:102b100063449b690b4053409c225200ba181360d7
:102b20007b4bb02252009446bc446344da69a22332
:102b30005b00fb181b68d2189c235b00fb181b680a
:102b4000d218744bae214900791809688900cb5816
:102b5000d218714bb02149008c46bc446344ae216d
:102b60004900791809688900cb58d3189a22520075
:102b7000ba181360664bb02252009446bc446344ba
:102b80009a69634bb02149008c46bc446344da61c6
:102b90005f4bb02252009446bc4463445a695c4b7c
:102ba000b02149008c46bc4463449a61584bb02222
:102bb00052009446bc4463441a69554bb021490005
:102bc0008c46bc4463445a61514bb0225200944637
:102bd000bc446344da689a235b00fb181b68d21874
:102be0004b4bb02149008c46bc4463441a61484bae
:102bf000b02252009446bc4463449a68444bb021ce
:102c000049008c46bc446344da60414bb022520018
:102c10009446bc4463445a683d4bb02149008c46fd
:102c2000bc4463449a603a4bb02252009446bc4480
:102c300063441a68364bb02149008c46bc44634457
:102c40005a609a235b00fb181a689e235b00fb18ee
:102c50001b68d2182e4bb02149008c46bc446344fb
:102c60001a60ae235b00fb181b680133ae225200d2
:102c7000ba181360ae235b00fb181b683f2b00dc07
:102c8000a6e60023ae225200ba18136025e0fb68c6
:102c9000ae225200ba18126822329200d2581c4b4f
:102ca000b02149008c46bc446344ae2149007918e8
:102cb00009688900cb58d118fb68ae225200ba18b7
:102cc000126822329200d150ae235b00fb181b68c1
:102cd0000133ae225200ba181360ae235b00fb181a
:102ce0001b68072bd3ddac235b00fb181b6801338b
:102cf000ac225200ba181360ac235b00fb181a68b0
:102d00007b689a4200d219e5c046bd4658b080bde6
:0c2d1000b4feffff54140100d4feffffce
:020000040000fa
:102d1c00f7b50d0009036c00ed0f0095490a450f3e
:102d2c0029431d035e00c700d80f6b0a550f2b43b8
:102d3c00c14d640d760dd200ae4203d11d00844608
:102d4c00154302d101254540ac46009da01bac4566
:102d5c0000d036e1002861dd002e25d11d00154381
:102d6c0000d196e2461e002e19d1ba18ba42a441df
:102d7c00c91864420919170001240b0200d4bee0e3
:102d8c00ad4b01349c4200d180e2ac487b08014041
:102d9c00012007401f43c80707434908afe0a64d71
:102dac00a84209d1a44caae0a34dac4200d1a6e0a4
:102dbc00802506002d042b43382e2adc1f2e17dc11
:102dcc0020201d00801b8540ac4615000190f5406d
:102ddc00604605430198f3408240501e82411543e2
:102dec00ed195b18bd428941494259182f00c4e7bf
:102dfc0030001d002038c5400020202e03d040207c
:102e0c00861bb34018000243501e82411543002319
:102e1c00e6e71a4315006a1e9541f8e7002850d0e2
:102e2c00002c14d10c003c4300d128e2c443002cec
:102e3c0007d1bf189742a441c9186442091934003c
:102e4c009be77d48864209d119001700aae77a4c06
:102e5c00a642f9d04442802000040143382c2bdcdc
:102e6c001f2c17dc2025281b01900800019de14038
:102e7c00a840844638006546e0402843019daf4099
:102e8c007d1eaf413843871897429241c918524270
:102e9c008918d4e720000d002038c54028000025f3
:102eac00202c03d040252c1ba1400d002f437d1e50
:102ebc00af4138430021e6e70f433800471eb841c5
:102ecc00f8e7661c75056d0d012d00dd69e0080045
:102edc003843002c49d1002800d1d3e1180010430d
:102eec000dd0ba18ba42b641c91880237642891956
:102efc001b041700194202d00124504b19407b07c8
:102f0c0009d00f233b40042b05d03b1dbb42bf41d6
:102f1c007f42c9191f000b0206d5474b01349c4256
:102f2c0000d1c3e1454b1940434b4807ff083843d8
:102f3c00c9089c4206d103000b4300d1b9e18023a0
:102f4c001b031943002709033b0d1b05090b1943f0
:102f5c003b4b6405194064080c43009b6400d90783
:102f6c0064080c43210003b0f0bd002800d16be7ce
:102f7c001800104300d115e74807ff0807438020cd
:102f8c00c9080003014207d0dc08044204d1d2086e
:102f9c005b0713431f002100780fc9000143ff009a
:102fac0000e7254ca64200d16fe1ba18c918ba4205
:102fbc009b415b42cb18df0752081743590834007a
:102fcc009de700285ddd002e3cd11d00154300d18e
:102fdc005fe1461e002e0ed1ba1a9742bf41c91aa4
:102fec007f42c91b012417000b0200d487e749025a
:102ffc004d0a3e00f9e0104da84200d1d2e6382e21
:10300c003adc1f2e27dc20201d00801b8540ac469f
:10301c0015000190f540604605430198f34082404d
:10302c00501e824115437d1bcb1aaf428941494248
:10303c00591a2f00d8e7c046ff070000ffff7fff9b
:10304c00ffff0f809c4dac4200d158e780252d042a
:10305c002b430600d3e730001d002038c54000206c
:10306c00202e03d04020861bb34018000243501e74
:10307c00824115430023d6e71a4315006a1e954179
:10308c00f8e700284dd0002c17d10c003c4300d1a0
:10309c0001e1c443002c09d1d71bba429241591a01
:1030ac0063465242891a340000939de78248864257
:1030bc000ad119001700804c45e07f4ca642f8d08d
:1030cc004442802000040143382c25dc1f2c11dce9
:1030dc002025281b00900800009de140a840050019
:1030ec003800e0402843009daf407d1eaf4138437f
:1030fc00171ad2e720000d002038c5402800002503
:10310c00202c03d040252c1ba1400d002f437d1eed
:10311c00af4138430021ebe70f433800471eb8415d
:10312c00f8e7601c4005400d01284cdc18000d0030
:10313c0010433d43002c24d1002d07d1071e00d194
:10314c00ade01900170063460093d8e6002800d1c3
:10315c00d5e6bd1aaf42b641c81a7642801b80260e
:10316c003604304206d0d71bba429241591a524209
:10317c00891ae8e72f00074300d190e001002f00e7
:10318c00bde6002d07d1071e00d18be01900634668
:10319c001700009306e6002800d103e64807ff0855
:1031ac0007438020c9080003014200d1f4e6dc0883
:1031bc00044200d0f0e6d2085b0713431f006346bd
:1031cc0021000093e8e6be1ab7428041cd1a404276
:1031dc002d1a8020000405422dd0d61bb242ad41e1
:1031ec00591a63466d424d1b0093002d29d02800bf
:1031fc0019f0b8fa0300083b1f2b27dc2022310002
:10320c009e40d21a9d40d14037000d439c4232dc87
:10321c001c1b661c1f2e1edc20233a0029009b1b46
:10322c009940f2409f400a43791e8f412900f1409a
:10323c001743002463e637002f43d6d139003c00f6
:10324c002ee0300019f08efa2030d3e73500283804
:10325c0085400027dae72a001f3ce2400023202e9d
:10326c0003d040239e1b2b00b3401f437b1e9f416a
:10327c0000211743dde71149e41a29403fe6190004
:10328c0017009ce61900170039e60b4c00210f00c3
:10329c0035e6040033e619001700340053e7390013
:1032ac0000972ce68021044cc903f9e700210f009c
:1032bc003ae6190046e6c046ff070000ffff7fff15
:1032cc00f7b50d0009036c00ed0f0095490a450f89
:1032dc005e0029431d03db0f9c466b0a550f2b43e5
:1032ec00009d640d760dc700d200a01b654500d073
:1032fc0036e1002861dd002e25d11d00154300d1db
:10330c0097e2461e002e19d1ba18ba42a441c91828
:10331c0064420919170001240b0200d4bee0bd4b16
:10332c0001349c4200d181e2bb487b080140012062
:10333c0007401f43c80707434908afe0b54da842f3
:10334c0009d1b44caae0b34dac4200d1a6e0802523
:10335c0006002d042b43382e2adc1f2e17dc2020d0
:10336c001d00801b8540ac4615000190f540604661
:10337c0005430198f3408240501e82411543ed19dc
:10338c005b18bd428941494259182f00c4e73000ef
:10339c001d002038c5400020202e03d04020861b65
:1033ac00b34018000243501e824115430023e6e748
:1033bc001a4315006a1e9541f8e7002850d0002cde
:1033cc0014d10c003c4300d129e2c443002c07d19a
:1033dc00bf189742a441c9186442091934009be7ed
:1033ec008c48864209d119001700aae7894ca642dd
:1033fc00f9d04442802000040143382c2bdc1f2cd4
:10340c0017dc2025281b01900800019de140a840f5
:10341c00844638006546e0402843019daf407d1e40
:10342c00af413843871897429241c91852428918c4
:10343c00d4e720000d002038c54028000025202ca2
:10344c0003d040252c1ba1400d002f437d1eaf4106
:10345c0038430021e6e70f433800471eb841f8e730
:10346c00661c75056d0d012d00dd69e00800384303
:10347c00002c49d1002800d1d4e1180010430dd004
:10348c00ba18ba42b641c9188023764289191b046e
:10349c001700194202d001245f4b19407b0709d059
:1034ac000f233b40042b05d03b1dbb42bf417f4249
:1034bc00c9191f000b0206d5564b01349c4200d192
:1034cc00c4e1554b1940534b4807ff083843c90812
:1034dc009c4206d103000b4300d1bae180231b03ad
:1034ec001943002709033b0d1b05090b19434b4bd3
:1034fc006405194064080c43009b6400d9076408f8
:10350c000c43210003b0f0bd002800d16be718007c
:10351c00404c1043c2d04807ff0807438020c9081d
:10352c000003014207d0dc08044204d1d2085b0737
:10353c0013431f002100780fc9000143ff0000e76f
:10354c00344ca64200d170e1ba18c918ba429b415a
:10355c005b42cb18df0752081743590834009de72c
:10356c0000285ddd002e35d11d00154300d160e132
:10357c00461e002e0ed1ba1a9742bf41c91a7f427d
:10358c00c91b012417000b0200d487e749024d0a1e
:10359c003e00fae01f4da84200d1d2e6382e33dcb3
:1035ac001f2e20dc20201d00801b8540ac46150002
:1035bc000190f540604605430198f3408240501e4f
:1035cc00824115437d1bcb1aaf4289414942591a9e
:1035dc002f00d8e70f4dac4200d15fe780252d04ba
:1035ec002b430600dae730001d002038c5400020d0
:1035fc00202e03d04020861bb34018000243501edf
:10360c00824115430023dde71a4315006a1e9541dc
:10361c00f8e7c046ff070000ffff7fffffff0f80aa
:10362c0000284dd0002c17d10c003c4300d102e1f6
:10363c00c443002c09d1d71bba429241591a634694
:10364c005242891a340000939de7834886420ad17e
:10365c0019001700804c45e07f4ca642f8d044423c
:10366c00802000040143382c25dc1f2c11dc202584
:10367c00281b00900800009de140a8400500380080
:10368c00e0402843009daf407d1eaf413843171ae0
:10369c00d2e720000d002038c54028000025202c42
:1036ac0003d040252c1ba1400d002f437d1eaf41a4
:1036bc0038430021ebe70f433800471eb841f8e7c9
:1036cc00601c4005400d01284ddc18000d00104316
:1036dc003d43002c24d1002d07d1071e00d1aee0b4
:1036ec001900170063460093d8e6002800d1d5e6f0
:1036fc00bd1aaf42b641c81a7642801b80263604ea
:10370c00304206d0d71bba429241591a5242891afa
:10371c00e8e72f00074300d191e001002f00bde640
:10372c00002d07d1071e00d18ce01900634617004d
:10373c00009306e6484c002800d1afe64807ff0886
:10374c0007438020c9080003014200d1f3e6dc08de
:10375c00044200d0efe6d2085b0713431f00634618
:10376c0021000093e7e6be1ab7428041cd1a4042d1
:10377c002d1a8020000405422dd0d61bb242ad413b
:10378c00591a63466d424d1b0093002d29d0280019
:10379c0018f0e8ff0300083b1f2b27dc2022310028
:1037ac009e40d21a9d40d14037000d439c4232dce2
:1037bc001c1b661c1f2e1edc20233a0029009b1ba1
:1037cc009940f2409f400a43791e8f412900f140f5
:1037dc001743002462e637002f43d6d139003c0052
:1037ec002ee0300018f0beff2030d3e7350028382b
:1037fc0085400027dae72a001f3ce2400023202ef8
:10380c0003d040239e1b2b00b3401f437b1e9f41c4
:10381c0000211743dde71149e41a29403ee619005f
:10382c0017009be61900170038e60b4c00210f001f
:10383c0034e6040032e619001700340052e7390070
:10384c0000972be68021044cc903f9e700210f00f7
:10385c0039e6190045e6c046ff070000ffff7fff71
:020000040000fa
:10386c00f0b597b00c00089209931c9d07901af0c4
:10387c0053ff036818000e931bf062f9237e266831
:10388c000b930f902b680722f1054bd59b18934394
:10389c001a0008322a601a685b68a264e364012289
:1038ac00e76ca36c7d000a936d080c935242c04bdd
:1038bc000a98290019f058fa002800d070e2012269
:1038cc00bb4b52420a98290014f068fc002800d027
:1038dc0066e2002200230c98390014f055fc0028f5
:1038ec0003d023002d2243331a70b24b1a1d0a92b7
:1038fc000b9a472a00d80a93032300272361042339
:10390c003d009e432660099b14aa00932100089b4e
:10391c0007980ff04bf8431c00d007e10120404200
:10392c0017b0f0bd0733b2e763685a1c00d0ace0a7
:10393c000623636080230022db0033432360656829
:10394c001092974205da802109067b181f002d235f
:10395c00109320230b9a9a430d920d9b0322462b16
:10396c0004d0453b5842584102222d1814ab049305
:10397c0013ab039312ab029300923b0001950c9a8c
:10398c000798fcf7a3fb0d9b0a90472b02d1f3077a
:10399c0000d418e20a9b5e190d9b462b10d10a9b92
:1039ac001b78302b0ad1002200230c98390014f01c
:1039bc00e5fb002802d101235d1b1295129bf61822
:1039cc00002200230c98390014f0d8fb3022002878
:1039dc0069d01496149b0a9a9f1a0d9b472b0ad1f7
:1039ec00129bda1c03db6268934200dc8ce00b9bbd
:1039fc00023bdbb20b930b9b129a652b68d8694682
:103a0c002c202300091809785033551e0d9319707a
:103a1c0002330c931295013b002d48da0125ad1aa7
:103a2c002d221a70092d4bdd27260cabf618731eb0
:103a3c0028000a21119312f063f8731e30311970ab
:103a4c0028000a2112f012f80500092831dc272180
:103a5c00023e30350caa0c9b357089181a008e4228
:103a6c0029d30d9bd51aeb192361012f02dc226897
:103a7c00d20701d501332361109b002b00d142e703
:103a8c0023002d2243331a703de720220b999143da
:103a9c00472900d04ee7002b00d04be7012348e725
:103aac00591c14911a70149b9e42f9d892e72b2240
:103abc00b7e7119ebbe7327801361a700133cde7b8
:103acc0030230c9a30351370130002325d70c8e746
:103adc000b9b662b1ad16368002a0cdd2261002b2c
:103aec0002d12168c90702d501339b182361129baf
:103afc000025a365c0e7002b03d1012221681142e8
:103b0c0000d09a1c2261f2e767230b93129bbb42f5
:103b1c0005db22682361d207e9d50133e6e70122f0
:103b2c00002b01dc0222d21ad219ebe722685305d2
:103b3c0008d423690a9a08990798099da847431c39
:103b4c0029d1ebe60b9b652b00d8d7e0a06ce16c80
:103b5c000022002314f012fb002839d0154a01234f
:103b6c00103208990798099da847431c00d1d5e647
:103b7c00129bbb4202db2368db070cd5099d0f9b14
:103b8c000e9a08990798a8470025431c00d1c5e652
:103b9c007b1e9d4210db236800259b0700d5f9e0b6
:103bac00149be068984200dbbae61800b8e6c04601
:103bbc00ffffef7f78bc0100220001231a32089925
:103bcc000798099eb047431c00d1a7e60135dfe7f3
:103bdc00129b002b2ddc7e4a01231032089907988a
:103bec00099da847431c00d198e6129b002b04d1d9
:103bfc00002f02d12368db07cdd5099d0f9b0e9ab0
:103c0c0008990798a8470025431c00d186e6129b0b
:103c1c005b429d4201db3b008ce7220001231a3200
:103c2c0008990798099eb047431c00d176e60135e8
:103c3c00ede7a56dbd4200dd3d00002d34dc002319
:103c4c000b93eb43db170c930c9ba66d0b9a2b4041
:103c5c00f31a9a4231db129bbb423cdb2368db0735
:103c6c0039d4129abb1bbd1a9d4200dd1d00002ddc
:103c7c003adc00230a93eb43db170b93129b0b9a52
:103c8c00fb1a2a409b1a0a9a9a4284da22000123d0
:103c9c001a3208990798099eb047431c00d13de69b
:103cac000a9b01330a93e9e72b000a9a08990798b3
:103cbc00099eb047431cc2d130e6220001231a32c0
:103ccc0008990798099eb047431c00d126e60b9b28
:103cdc0001330b93b8e70f9b0e9a08990798099d2f
:103cec00a847431cbdd119e60a9b08999a19079855
:103cfc002b00099eb047431cbbd10fe6012f02dc01
:103d0c0001231a4239d001230a9a08990798099e6f
:103d1c00b047431c00d101e60f9b0e9a08990798f7
:103d2c00099eb047431c00d1f8e5a06ce16c002360
:103d3c00002214f023fa0023002815d10a9a7b1ec6
:103d4c00013208990798099eb047431c11d1e5e54b
:103d5c00220001231a3208990798099eb047431c88
:103d6c0000d1dbe50a9b01330a930a9a7b1e9a4227
:103d7c00eedb22002b005032dde60a9ae1e722004e
:103d8c000123193208990798099eb047431c00d1aa
:103d9c00c4e50135e368149a9b1a9d42efdbffe6fc
:103dac000c9a3b000c98390018f0deff002800d16b
:103dbc00bae5074b1a000c320a920b9a472a00d923
:103dcc009ae5083397e5149b0a9a9f1a08e6c046b1
:043ddc0078bc0100ae
:020000040000fa
:103de000f0b58bb0060004930400cb0f0d03480020
:103df00000922d0b400d0393029346d0584b9842ee
:103e000067d08023720f1b04ed0013432b431f0068
:103e1000544bf400c31800260193049b009a1d0321
:103e20005800db0f2d0b400d069361d04c4b984290
:103e300000d181e08023520f1b041343ed001d438a
:103e4000484a009b8218db0094460022069803999a
:103e50004140604604910199091ab00010430138ad
:103e600005910e2800d981e01af070fd7500490215
:103e7000ed0149023d024902ed01750075003d0268
:103e8000ed01fc01fc01fc01e2012f00374327d0ca
:103e9000002d13d0280018f06bfc01000b391c29f1
:103ea00011dc02001d2337003400083a5b1a9540ec
:103eb000df4094402f432c4b1b1aace7300018f026
:103ec00057fc2030e9e70300283b9e4000243700e0
:103ed000f1e72e43371e07d02f00019003269ce701
:103ee0003c000197012698e734000190022694e7f0
:103ef000009b2b4327d0002d13d0280018f038fc4e
:103f000001000b391c2911dc1d2302005b1a0099ea
:103f1000083ad940009b954093400d43124a121a2b
:103f200092e7100018f024fc2030e9e70300009d20
:103f3000283b9d400023f1e7009b2b4307d0130053
:103f40008446032282e71d009c4601227ee71d0075
:103f5000844602227ae700252c00014b4ee1c04640
:103f6000ff07000001fcffff0dfcffffaf4204d87c
:103f700000d057e19c4200d254e1f9076208114396
:103f8000e0070c0001907f082d021a0e2a431b0245
:103f90000293130c03936b4600921b88039938001d
:103fa000079313f07bfa0600079b069003993800ed
:103fb0005e4313f0affa250c09040d43069fae4291
:103fc00009d9009b013fed18ab4204d8ae4202d99b
:103fd000069fed18023fab1b03991800069313f0e0
:103fe0005dfa079e050046430399069813f092fa7e
:103ff000a4b209040c432a00a64208d9009b013a46
:10400000e418a34203d8a64201d9aa1ee4183b042f
:1040100002991343029a0904120c090c08920691a2
:10402000089d06989ab2a61b1c0c514360436a4334
:104030006c4312180d0caa18904202d9802040023d
:104040002418100c09041204090c04195218a64271
:1040500005d31f00a64227d10199914224d202988c
:104060000199844661440191814289410098494205
:10407000091876185f1eb04204d315d16146019825
:10408000814211d8b44203d80ed101998a420bd98a
:1040900002999f1e8c46019b634401938b429b4176
:1040a00000995b425b18f618019b341b9b1a09931d
:1040b000099a019b93429b415b42e41a009ba342f5
:1040c00000d1d2e00399200013f0e8f9079d060023
:1040d00045430399200013f01dfa099b09041c0ca9
:1040e0000c430196a5420cd93300013b0193009b80
:1040f000e418a34205d8a54203d9b31e0193009b3f
:10410000e418641b0399200013f0c8f9079d06000a
:1041100045430399200013f0fdf96b460a04998c7e
:10412000330011438d4208d9009a013b89188a4215
:1041300003d88d4201d9b31e8918019a089c120434
:104140001a43100c93b24d1b16000699069a414370
:104150005a43634360435b18140ce318994202d935
:10416000802149024018190c12041b04120c081873
:104170009b18854204d3340085421bd1002b1bd0f1
:10418000009a741e5519aa420fd8a84203d811d11b
:10419000029a9a420bd2029ab41e51009142924165
:1041a000009e52429219ad180291854202d1029aa4
:1041b000934201d001231c43059b564a9b18002bb8
:1041c00056dd620709d00f222240042a05d0221da5
:1041d000a242a44164423f191400fa0106d580228c
:1041e000d20094464c4b1f40059b63444b4a93427c
:1041f00000dd88e0e40879070c43fd0800212d0369
:104200000a0d12052d0b1543454a5b0515405b0849
:104210002b43049a5b00d2075b081343200019006c
:104220000bb0f0bd059a013a059200220192abe66f
:104230008022120317425ad0154258d12f001c0079
:10424000069b029353e02f0016001c00069b04936c
:10425000022e58d0032e50d0012eadd100242500bf
:104260002300cbe7039b0493f2e701246442a3e716
:104270000122d21a382af1dc1f2a21dc2023200057
:104280009b1a39009c403d009940d040631e9c41e0
:10429000d54001430c43630709d00f232340042b6f
:1042a00005d0231da342a44164422d191c00802384
:1042b0001b042b402ad16907e4080c43ed089de755
:1042c0001f214942cb1a3900d9400b000021202a76
:1042d00003d040218a1a390091400c43611e8c4161
:1042e00000251c43d7e7802700243f030294802544
:1042f000029b2d033d4304932fe6049ba1e7002579
:104300002c002b007ae70024250026e60025012357
:104310002c0073e7ff030000fffffffefe07000015
:04432000ffff0f800c
:020000040000fa
:1043240090b5bdb002af3a60fb1d021c1a703b1d74
:104334000a1c1a80fb1d1b78412b03d0fb1d1b7824
:10434400542b20d1cc23f9183868002304220af016
:1043540069fa031e00d074e2cc23fb1801229a569a
:10436400c823fb181a70924b1b68002b00d168e21b
:104374008f4b1b68cc22ba1800201056c822ba18da
:10438400012198475de2fb1d1b78422b20d1c423f9
:10439400f9183868002304220af044fa031e00d0f6
:1043a40056e2c423fb1801229a56c023fb181a7044
:1043b4007f4b1b68002b00d14ae27d4b1b68c42253
:1043c400ba1800201056c022ba18022198473fe2ba
:1043d400fb1d1b78432b00d086e0b423f918386802
:1043e40000230c220af01efa031e00d030e2b4238c
:1043f400fb185b7a5bb2002b4fdbb423fb185b7ab0
:104404005bb21800b423fb181b7a5bb2694a1b0128
:10441400d3180b331b78d9b2664a0301d3180b3374
:104424000a1c1a70b423fb185b7a5bb2614a1b0145
:10443400d3180a3301221a70b423fb185b7a5bb2d7
:104444001800b423fb185b89083b99b2594a03014d
:10445400d31808330a1c1a80574b1b889bb20133ac
:104464009ab2554b1a80544b1b889bb2002b06d131
:10447400514b1b889bb201339ab24f4b1a80b42321
:10448400fb185b7a5bb218004b4b1b8899b2494a04
:104494000301d31806330a1c1a80b423fb1809221b
:1044a4009a56a023fb181a70a023fb1802229a80a4
:1044b400b423fb185a88a023fb18da80b423fb1812
:1044c4005a68a023fb189a60394b1b68002b00d153
:1044d400bee1374b1b68b422ba1808201056a0223c
:1044e400ba1804219847b3e1fb1d1b78442b03d071
:1044f400fb1d1b784b2b3dd19c23f91838680023f6
:1045040004220af08ff9031e00d09ce19c23fb18bf
:1045140000229a569823fb181a709c23fb18012238
:104524009a569823fb185a709c23fb185b785bb24d
:10453400002b0fd19c23fb181b785bb218009c2323
:10454400fb185b88083b99b21a4a0301d318083355
:104554000a1c1a80164b1b68002b00d173e1144b04
:104564001b689c22ba18002010569822ba180521fc
:10457400984768e1fb1d1b784a2b21d10c23f918bd
:104584003868002344220af04df9031e00d05fe18d
:104594000a4b1b68002b00d15ae1084b1a680c2304
:1045a400fb18196c0c23fb181800904750e1c04607
:1045b400dc0000202c00002052190020e000002024
:1045c400fb1d1b78462b08d0fb1d1b78482b04d001
:1045d400fb1d1b784d2b00d0b4e0e723fb1806220b
:1045e4001a70fb1d1b78482b03d1e723fb18092203
:1045f4001a70da23fb1810221a80da23fb181a889f
:104604008823f918386800230af00cf9031e00d037
:104614001be1d823fb1800221a80d723fb18882219
:10462400ba18127b1a70d823fb188822ba18d289b8
:104634001a80d723fb181b785bb2874a1b01d31857
:104644000c3300221a70d423fb188822ba1812895a
:104654001a80d223fb188822ba1852891a80882318
:10466400fb185a887023fb185a818823fb185a6850
:104674007023fb18da60d723fb181b785bb2764ae9
:104684001b01d31806331b889bb2d822ba18128890
:104694009a4248d1d423fb1800229b5e002b25ddcf
:1046a400d423fb1800229a5e3b1d1b889a421dda14
:1046b400d223fb181b883a68d3183b60da23fb1813
:1046c400d422ba1812881a803c68e723fb181a7897
:1046d4007023f918d723fb1800201856da23fb1887
:1046e4001b880093230006f01bfdaee07023fb182b
:1046f400d422ba1812889a807023fb1800221a60f8
:10470400564b1b68002b00d19fe0544b1b68702252
:10471400bc18e722ba181178d722ba18002010560c
:104724002200984791e0da23fa183b1d12881b886f
:104734009a4200d389e001230022002100200af0dc
:1047440071f882e0fb1d1b78452b07d0fb1d1b78fd
:10475400472b03d0fb1d1b784c2b4cd1e623fb18b5
:1047640007221a70fb1d1b78472b03d1e623fb1885
:1047740008221a706423f9183868002308220af002
:1047840051f8031e63d1de23fb1800221a80dd23b7
:10479400fb186422ba1812781a70de23fb186422fc
:1047a400ba1892881a806423fb1802229a5e6e2338
:1047b400fb181a80dd23fb181b785bb2264a1b0109
:1047c400d31806331b889bb2de22ba1812889a4289
:1047d4003dd1224b1b68002b39d0204b1b686e2225
:1047e400bc18e622ba181178dd22ba180020105637
:1047f400220098472be0fb1d1b78522b28d1502315
:10480400f9183868012314220af00cf8031e1fd18a
:104814005023fb185b68e022ba181360e023fb18ee
:104824001b68002b14d05023fb1818685023fb1866
:1048340099685023fb181a7ce023fb181b689847df
:1048440006e0c04604e0c04602e0c04600e0c046c0
:10485400c046bd463bb090bd2c000020dc000020cb
:020000040000fa
:10486400b0b5b2b002af3a60fb1d021c1a703b1d1a
:104874000a1c1a80fb1d1b782c2b16d1b023f918a7
:1048840038680023042209f0cdff031e00d054e24f
:10489400cd4b1b68002b00d14fe2cb4b1b68b022e1
:1048a400ba1811002c20984747e2fb1d1b781b2bdc
:1048b40016d1a823f91838680023082209f0b2ff9a
:1048c400031e00d039e2c04b1b68002b00d134e238
:1048d400bd4b1b68a822ba1811001b2098472ce274
:1048e400fb1d1b78062b16d10c23f91838680123fd
:1048f400302209f097ff031e00d01ee2b24b1b6862
:10490400002b00d119e2b04b1b680c22ba1811001d
:104914000620984711e2fb1d1b780e2b00d10ce2f8
:10492400fb1d1b78322b16d19023f918386800230d
:10493400182209f077ff031e00d0fee1a24b1b688a
:10494400002b00d1f9e1a04b1b689022ba1811008a
:1049540032209847f1e1fb1d1b783d2b13d13868b9
:1049640001230022002109f05dff031e00d0e4e1d1
:10497400954b1b68002b00d1dfe1934b1b68002192
:104984003d209847d9e1fb1d1b782f2b1dd10c230b
:10499400fb186422002118001af098f80c23f91867
:1049a40038680023642209f03dff031e00d0c4e1ef
:1049b400854b1b68002b00d1bfe1834b1b680c2285
:1049c400ba1811002f209847b7e1fb1d1b78342b30
:1049d40034d18c23f91838680023042209f022ff0b
:1049e400031e00d0a9e1794b1b68002b1bd0774b29
:1049f4001c688c23fb181b681b0edbb219008c236c
:104a0400fb181b681b0cdbb21a008c23fb181b68f9
:104a14001b0adbb21d008c23fb181b68dbb26c483d
:104a240000932b00a047684b1b68002b00d184e146
:104a3400654b1b680021342098477ee1fb1d1b78e1
:104a4400112b1ed1634b00221a708823f918386881
:104a54000023042209f0e6fe031e00d06de1882342
:104a6400fb181a785c4b1a70574b1b68002b00d14b
:104a740063e1554b1b688822ba181100112098472e
:104a84005be1fb1d1b78132b16d10c23f918386836
:104a940000232c2209f0c6fe031e00d04de14a4b30
:104aa4001b68002b00d148e1474b1b680c22ba1845
:104ab40011001320984740e1fb1d1b78042b16d1ed
:104ac400b423f91838680023042209f0abfe031e4e
:104ad40000d032e13c4b1b68002b00d12de13a4b56
:104ae4001b68b422ba1811000420984725e1fb1d65
:104af4001b78652b16d1b423f918386800230422d7
:104b040009f090fe031e00d017e12f4b1b68002b09
:104b140000d112e12c4b1b68b422ba181100652095
:104b240098470ae1fb1d1b78092b16d10c23f918b1
:104b340038680123642209f075fe031e00d0fce0ee
:104b4400214b1b68002b00d1f7e01f4b1b680c2284
:104b5400ba18110009209847efe0fb1d1b782a2b97
:104b640016d18423f91838680123042209f05afe67
:104b7400031e00d0e1e0144b1b68002b00d1dce0e5
:104b8400114b1b688422ba1811002a209847d4e0dc
:104b9400fb1d1b78272b21d18023f91838680023ab
:104ba400042209f03ffe031e00d0c6e0064b1b683a
:104bb400002b00d1c1e0044b1b688022ba181100fd
:104bc40027209847b9e0c04694190020e40000204b
:104bd400306e0000691a0020681a0020fb1d1b7843
:104be400202b25d17823f91838680023082209f0ee
:104bf40019fe031e00d0a0e03b6808331800782398
:104c0400fb1819687823fb189a88012309f00afe17
:104c1400031e00d091e04b4b1b68002b00d18ce0ad
:104c2400484b1b687822ba1811002020984784e06a
:104c3400fb1d1b781d2b00d072e07423f918386813
:104c44000023042209f0eefd031e00d075e0bc230e
:104c5400fb187422ba1852881a807423fb181a8815
:104c64007023fb185a80384b1b68002b00d164e07a
:104c7400364b1b68002b60d0354b1b88002b5cd057
:104c8400bf23fb1801221a707023fb185a88304b7b
:104c94001b889a4209d9bf23fb1800221a702c4b97
:104ca4001a887023fb181a8005e07023fb185a88b1
:104cb4007023fb181a80bc23fb181a883b68d01891
:104cc400224b19687023fb181a88bf23fb181b7822
:104cd40009f0a8fd031e2fd17023fb185a887023f6
:104ce400fb181b88d31a9ab27023fb185a807023be
:104cf400fb181988bc23fb18bc22ba1812888a181e
:104d04001a80114b1c68114b1b687022ba181900c9
:104d14001d20a0477023fb185b88002bb0d10ce04a
:104d24000c4b1b68002b08d00a4b1b68fa1d11782a
:104d3400094a1000984700e0c046c046bd4630b05e
:104d4400b0bdc04694190020981900209c19002079
:0c4d540066160020e4000020506e0000f5
:020000040000fa
:104d6000b0b58eb002af2f23fb1800221a70c046d8
:104d7000d44bbb622623fb18012252421a80012029
:104d800018f031fe03003b62bb6a1b78002b0cd08d
:104d9000bb6a1b78013bdab2bb6a1a703b6a190026
:104da000012018f028fa012305e03b6a19000120d0
:104db00018f021fa0023002bdad02f23fc180c2343
:104dc000fb18c14a1900100019f04cf803002370b9
:104dd0002f23fb181b785bb2002b00d0e2e1fb68ad
:104de0000122134000d1d2e1fb6801229343fb6012
:104df000fb682f22bc18b44a1900100019f042f8c1
:104e0000030023702f23fb181b785bb2002b00d00c
:104e1000d2e1ae4b01229a70fb689b089ab22c2318
:104e2000fb181205120d1a802c23fb181b88002b6f
:104e300000d19ee100237b602f23fc183b1da44a78
:104e40001900100019f00ef8030023702f23fb182f
:104e50001b785bb2002b0ad09e4b1b68002b00d145
:104e6000ace19c4b1b689c4a10009847a6e17a680d
:104e7000964b5a602c23fb181a88944b9a607b68d7
:104e80002f22bc180822b918042218000ef028fca2
:104e9000030023700823fb185a880823fb185a8044
:104ea0002f23fb181b785bb2002b0ad0894b1b68a1
:104eb000002b00d184e1874b1b68884a100098477b
:104ec0007ee10823fb185b882c22ba1812889a42cc
:104ed00026d02c23fb181b880822ba1852889b1a4c
:104ee000042b1ddd7b4b1b68002b13d0794b1c68fa
:104ef0002c23fb1819880823fb185b881a00082349
:104f0000fb181b781d000823fb185b78744800937e
:104f10002b00a0472f23fb18fa221a70c04654e139
:104f2000684bfb61012018f05efd0300bb61fb696b
:104f30001b780133dab2fb691a70bb6919000120d2
:104f400018f059f90823fb181b78012b1cd15f4b73
:104f5000db68002b0dd05d4bdb680822ba18507857
:104f60000822ba185288083a91b27a6808329847eb
:104f7000d8e0584b1b68002b00d1d3e0554b1b6881
:104f8000584a10009847cde00823fb181b78022be5
:104f90001cd14e4b1b69002b0dd04c4b1b690822ba
:104fa000ba1850780822ba185288083a91b27a682a
:104fb00008329847b6e0474b1b68002b00d1b1e0a0
:104fc000444b1b68484a10009847abe00823fb1885
:104fd0001b78042b1cd13d4b5b69002b0dd03b4b48
:104fe0005b690822ba1850780822ba185288083a21
:104ff00091b27a680832984794e0364b1b68002bd0
:1050000000d18fe0334b1b68384a1000984789e085
:105010000823fb181b78062b1cd12c4b1b6a002b7a
:105020000dd02a4b1b6a0822ba1850780822ba18e9
:105030005288083a91b27a680832984772e0254b54
:105040001b68002b00d16de0224b1b68284a100022
:10505000984767e00823fb181b78072b1bd11b4bd5
:105060009b69002b0dd0194b9b690822ba18507808
:105070000822ba185288083a91b27a6808329847da
:1050800050e0144b1b68002b4cd0124b1b68194a84
:105090001000984746e00823fb181b78052b35d1f4
:1050a0000a4b5b6a002b27d0084b5b6a0822ba18b0
:1050b00050780822ba185288083a91b27a680832b1
:1050c00098472fe0661a00207010000000000020b2
:1050d00084100000e4000020d4670000fc6700009a
:1050e00018680000586800007c680000a068000094
:1050f000c4680000e8680000414b1b68002b11d019
:105100003f4b1b683f4a100098470be03c4b1b6825
:10511000002b04d03a4b1b683b4a100098470623eb
:105120005b4268e0394b9b78dbb2002b1fd0344bdd
:105130001b68002b0ad0324b1b680822ba18127861
:1051400011000822ba185278314898472f23fc18ca
:1051500014f0a2fc030023702f23fb181b785bb212
:10516000002b04d02f23fb181b785bb243e00023f5
:1051700041e0234b1b68002b04d0214b1b68254ac0
:10518000100098472f23fb18fe221a701de01c4bbd
:105190001b68002b16d01a4b1b68f9681e4a1000ba
:1051a00098470fe0164b1b68002b0dd0144b1b6863
:1051b0001a4a1000984707e0c04606e0c04604e0df
:1051c000c04602e0c04600e0c046154b7b610120ae
:1051d00018f009fc03003b617b691b780133dab2ec
:1051e0007b691a703b691900012018f004f82f231d
:1051f000fb181b785bb21800bd460cb0b0bdc046b2
:10520000e40000200c69000030690000000000206c
:105210004c6900007c69000090690000ac690000e6
:04522000661a0020ea
:020000040000fa
:10522400312e3000312e302e3000c0461b5b410041
:105234001b5b42001b5b43001b5b44001b5b317e1a
:105244000000c0461b5b347e0000c0467265736577
:105254007400c0463a20526573657420686f737495
:105264000000c0467265636f6e6e65637400c0466d
:105274003a204d515454205265636f6e6e656374c9
:105284002000c046776966690000c0463a2053652d
:105294007420576966692063726564656e74696118
:1052a4006c73202f2f55736167653a20776966699f
:1052b400203c737369643e5b2c3c706173733e2cb9
:1052c4005b61757468547970655d5d200000c0464b
:1052d4006b6579003a204765742045434320507537
:1052e400626c6963204b65792000c0466465766909
:1052f400636500003a2047657420454343205365a5
:105304007269616c204e6f2e2000c046636c695f29
:1053140076657273696f6e003a2047657420434c5a
:10532400492076657273696f6e200000766572732a
:10533400696f6e003a20476574204669726d776123
:1053440072652076657273696f6e2000646562759c
:105354006700c0463a20536574204465627567202f
:105364004c6576656c2000007100c0463a2071756a
:10537400697420636f6d6d616e642070726f636514
:1053840073736f720000c04668656c700000c0469d
:105394003a2068656c7000000d0a3e000d0a00009a
:1053a4003e00c046081b5b4b25731b5b2564440011
:1053b400081b5b4b0000c0461b5b4b25731b5b2526
:1053c4006444000025731b5b25644400202a2a2ab8
:1053d40020436f6d6d616e642050726f63657373eb
:1053e4006f722062756666657220657863656564b0
:1053f40065642e2052657472792e202a2a2a0d0a99
:105404000000c0460d0a202a2a2a205379737465a5
:105414006d205265626f6f74202a2a2a0d0a0000db
:105424000d0a202a2a2a205175697474696e67202e
:1054340074686520436f6d6d616e642050726f6394
:105444006573736f722e20427965202a2a2a0d0a09
:105454000000c0460d0a2d2d2d2d2d2d2d20537508
:1054640070706f7274656420636f6d6d616e64201b
:1054740067726f757073202d2d2d2d2d2d00c04654
:105484000d0a202a2a2a2000202a2a2a0000c0469f
:105494000d0a2d2d2d2d2d2d2d2d2d2d20427569ef
:1054a4006c7420696e20636f6d6d616e6473202d62
:1054b4002d2d2d2d2d2d2d2d2d00c0460d0a556e73
:1054c4006b6e6f776e20636f6d6d616e64206772b3
:1054d4006f75702e205472792068656c700d0a0007
:1054e4000d0a4f4b0d0a00002c00c0460000c046b8
:1054f4003100c046256400000d0a4f4b0d0a04001c
:105504000d0a4572726f722e2057692d4669206309
:105514006f6d6d616e6420666f726d617420697366
:105524002077696669203c737369643e5b2c3c7028
:105534006173733e2c5b61757468547970655d5d4d
:105544000d0a04000d0a204572726f72206765749b
:1055540074696e67206b65792e0d0a000d0a20446c
:1055640065766963652049440d0a00000d0a2055db
:105574006e6b6e6f776e2e0d0a00c0460d0a2043c7
:105584004c492056657273696f6e0d0a0000c0465f
:105594000d0a204669726d776172652056657273d3
:1055a400696f6e0d0a00c0460d0a205365742044cd
:1055b40065627567204c6576656c0d0a0000c0460f
:1055c4000d0a4465627567206c6576656c206d759f
:1055d4007374206265206265747765656e2030207f
:1055e400284c656173742920616e64203420284d31
:1055f4006f737429200d0a00202a2a2a20436f6d14
:105604006d616e642050726f636573736f723a20bc
:10561400756e6b6e6f776e20636f6d6d616e642e49
:10562400202a2a2a0d0a0000202a2a2a20436f6de4
:105634006d616e642050726f636573736f723a208c
:10564400506c65617365207479706520696e2061a2
:1056540020636f6d6d616e642a2a2a0d0a00c046ac
:105664000a0d20546f6f206d616e79206172677529
:105674006d656e74732e204d6178696d756d206152
:105684007267757320737570706f727465642069c6
:1056940073202564210d0a001b5b25644400c04669
:1056a4001b5b25644300c046082008000800c04670
:1056b4003a204765742073657269616c206e756d5c
:1056c400626572206661696c6564202d2d205374b7
:1056d400617475733a20253032580d0a0000c046b3
:1056e4003a2042616420696e707574207061726141
:1056f4006d6574657273202d2d20537461747573f8
:105704003a20253032580d0a0000c0463a20536929
:10571400676e204661696c6564202d2d2053746189
:105724007475733a20253032580d0a003a205665b4
:1057340072696679204661696c6564202d2d205359
:1057440074617475733a20253032580d0a00c046ce
:105754003a2047657420656e636b657920466169fc
:105764006c6564202d2d205374617475733a202563
:105774003032580d0a00c0463a204543444820467a
:1057840061696c6564202d2d205374617475733abe
:1057940020253032580d0a003a2043726561746541
:1057a400206b6579206661696c6564202d2d20531a
:1057b40074617475733a20253032580d0a00c0465e
:1057c4003a2045434448206661696c6564202d2d68
:1057d400205374617475733a20253032580d0a00d1
:1057e4003a204e554c4c20696e70757473202d2de3
:1057f400205374617475733a20253032580d0a00b1
:105804003a2047656e207075626c6963206b657918
:10581400206661696c6564202d2d20537461747554
:10582400733a20253032580d0a00c0463a204261ae
:10583400642061746361746c735f726561645f702a
:1058440075626b6579282920696e707574207061a2
:1058540072616d6574657273202d2d2053746174ab
:1058640075733a20253032580d0a00003a205265eb
:105874006164207075626c6963206b657920666170
:10588400696c6564202d2d205374617475733a20fe
:10589400253032580d0a00003a2052616e646f6d53
:1058a40020636f6d6d616e64206661696c65642050
:1058b4002d2d205374617475733a20253032580da0
:1058c4000a00c0463a205772697465207061726597
:1058d4006e7420656e6372797074696f6e206b6587
:1058e40079206661696c6564202d2d205374617480
:1058f40075733a20253032580d0a00003a20536c53
:105904006f74206c6f636b206661696c65642e2014
:105914002d2d205374617475733a20253032580d3f
:105924000a00c0463a2047657420656e6372797038
:1059340074696f6e206b6579206661696c6564209b
:105944002d2d205374617475733a20253032580d0f
:105954000a00c0463a205265616420656e6372791c
:1059640070746564206661696c6564202d2d205314
:1059740074617475733a20253032580d0a00c0469c
:105984003a20577269746520656e63727970746524
:1059940064206661696c6564202d2d2053746174e4
:1059a40075733a20253032580d0a00003a205253bc
:1059b40041206b65792062756666657220746f6f2d
:1059c40020736d616c6c202d2d205374617475737c
:1059d4003a20253032580d0a0000c0463a2052655c
:1059e400616420525341206661696c6564202d2de9
:1059f400205374617475733a20253032580d0a00af
:105a04003a205772697465206f66207075626c69fc
:105a140063206b657920736c6f74206661696c65b3
:105a240064202d2d205374617475733a202530320f
:105a3400580d0a003a204c6f636b207075626c69d4
:105a440063206b657920736c6f74206661696c6583
:105a540064202d2d205374617475733a20253032df
:105a6400580d0a003a2052656164206f66207075f3
